{
  "contractName": "chainAuth",
  "abi": [
    {
      "anonymous": false,
      "inputs": [
        {
          "indexed": false,
          "name": "_id",
          "type": "string"
        },
        {
          "indexed": false,
          "name": "regTime",
          "type": "uint64"
        }
      ],
      "name": "registration",
      "type": "event",
      "signature": "0xd6a0191a44e09d5598a6a7025f496c10ffe2f9d3021f16864bcf417c830505d6"
    },
    {
      "anonymous": false,
      "inputs": [
        {
          "indexed": false,
          "name": "_id",
          "type": "string"
        },
        {
          "indexed": false,
          "name": "loginTime",
          "type": "uint64"
        }
      ],
      "name": "loginComfirm",
      "type": "event",
      "signature": "0x78c53e20fc708feb81617a1d7f5b7f23bd58ade27619aca73b123686f8a5b3b3"
    },
    {
      "constant": false,
      "inputs": [
        {
          "name": "_authHash",
          "type": "uint256"
        }
      ],
      "name": "requestLogin",
      "outputs": [
        {
          "name": "",
          "type": "string"
        }
      ],
      "payable": false,
      "stateMutability": "nonpayable",
      "type": "function",
      "signature": "0xc9037446"
    },
    {
      "constant": false,
      "inputs": [
        {
          "name": "_authHash",
          "type": "uint256"
        },
        {
          "name": "_id",
          "type": "string"
        }
      ],
      "name": "requestRegistration",
      "outputs": [
        {
          "name": "",
          "type": "string"
        }
      ],
      "payable": false,
      "stateMutability": "nonpayable",
      "type": "function",
      "signature": "0x0a11ed30"
    }
  ],
  "bytecode": "0x608060405234801561001057600080fd5b506108f8806100206000396000f3fe60806040526004361061004c576000357c0100000000000000000000000000000000000000000000000000000000900463ffffffff1680630a11ed3014610051578063c90374461461019c575b600080fd5b34801561005d57600080fd5b506101216004803603604081101561007457600080fd5b81019080803590602001909291908035906020019064010000000081111561009b57600080fd5b8201836020820111156100ad57600080fd5b803590602001918460018302840111640100000000831117156100cf57600080fd5b91908080601f016020809104026020016040519081016040528093929190818152602001838380828437600081840152601f19601f820116905080830192505050505050509192919290505050610250565b6040518080602001828103825283818151815260200191508051906020019080838360005b83811015610161578082015181840152602081019050610146565b50505050905090810190601f16801561018e5780820380516001836020036101000a031916815260200191505b509250505060405180910390f35b3480156101a857600080fd5b506101d5600480360360208110156101bf57600080fd5b8101908080359060200190929190505050610309565b6040518080602001828103825283818151815260200191508051906020019080838360005b838110156102155780820151818401526020810190506101fa565b50505050905090810190601f1680156102425780820380516001836020036101000a031916815260200191505b509250505060405180910390f35b606061025b82610538565b1515156102f6576040517f08c379a00000000000000000000000000000000000000000000000000000000081526004018080602001828103825260258152602001807f54686973204944206973206265696e67207573656420627920736f6d656f6e6581526020017f20656c736500000000000000000000000000000000000000000000000000000081525060400191505060405180910390fd5b61030083836105c4565b81905092915050565b60606103136107e5565b600080848152602001908152602001600020604080519081016040529081600082018054600181600116156101000203166002900480601f0160208091040260200160405190810160405280929190818152602001828054600181600116156101000203166002900480156103c95780601f1061039e576101008083540402835291602001916103c9565b820191906000526020600020905b8154815290600101906020018083116103ac57829003601f168201915b505050505081526020016001820160009054906101000a900460ff1615151515815250509050600115158160200151151514151561046f576040517f08c379a00000000000000000000000000000000000000000000000000000000081526004018080602001828103825260148152602001807f5468697320494420646f65736e7420657869737400000000000000000000000081525060200191505060405180910390fd5b7f78c53e20fc708feb81617a1d7f5b7f23bd58ade27619aca73b123686f8a5b3b381600001514260405180806020018367ffffffffffffffff1667ffffffffffffffff168152602001828103825284818151815260200191508051906020019080838360005b838110156104f05780820151818401526020810190506104d5565b50505050905090810190601f16801561051d5780820380516001836020036101000a031916815260200191505b50935050505060405180910390a18060000151915050919050565b6000600115156001836040518082805190602001908083835b6020831015156105765780518252602082019150602081019050602083039250610551565b6001836020036101000a038019825116818451168082178552505050505050905001915050908152602001604051809103902060000160009054906101000a900460ff161515149050919050565b6105cc610801565b60408051908101604052806001151581526020014267ffffffffffffffff1681525090506105f86107e5565b6040805190810160405280848152602001600115158152509050816001846040518082805190602001908083835b60208310151561064b5780518252602082019150602081019050602083039250610626565b6001836020036101000a038019825116818451168082178552505050505050905001915050908152602001604051809103902060008201518160000160006101000a81548160ff02191690831515021790555060208201518160000160016101000a81548167ffffffffffffffff021916908367ffffffffffffffff1602179055509050508060008086815260200190815260200160002060008201518160000190805190602001906106ff929190610827565b5060208201518160010160006101000a81548160ff0219169083151502179055509050507fd6a0191a44e09d5598a6a7025f496c10ffe2f9d3021f16864bcf417c830505d683836020015160405180806020018367ffffffffffffffff1667ffffffffffffffff168152602001828103825284818151815260200191508051906020019080838360005b838110156107a4578082015181840152602081019050610789565b50505050905090810190601f1680156107d15780820380516001836020036101000a031916815260200191505b50935050505060405180910390a150505050565b6040805190810160405280606081526020016000151581525090565b6040805190810160405280600015158152602001600067ffffffffffffffff1681525090565b828054600181600116156101000203166002900490600052602060002090601f016020900481019282601f1061086857805160ff1916838001178555610896565b82800160010185558215610896579182015b8281111561089557825182559160200191906001019061087a565b5b5090506108a391906108a7565b5090565b6108c991905b808211156108c55760008160009055506001016108ad565b5090565b9056fea165627a7a72305820f41a5d5f0943e62cb220f310e6e23b2da344301dd72a535a76fcf5cc46739f240029",
  "source": "pragma solidity ^0.5.0;\r\n\r\ncontract chainAuth {\r\n    struct authDetail {\r\n        string id;\r\n        bool isExsit;\r\n    }\r\n\r\n    struct regDetail {\r\n        //uint32 idIndex; \r\n        bool isReged;\r\n        uint64 regTime;\r\n    }\r\n\r\n    //id+pass의 해시값 key => authDetail\r\n    mapping(uint256 => authDetail) internal auth;\r\n\r\n    //id => accountDetails[]\r\n    mapping(string => regDetail) internal authinfo;\r\n\r\n    event registration(string _id, uint64 regTime);\r\n    event loginComfirm(string _id, uint64 loginTime);\r\n\r\n    //id를 주고, 있으면 -> true\r\n    function _isthere(string memory _id) internal view returns (bool) {\r\n        return (authinfo[_id].isReged == true);\r\n    }\r\n\r\n    function _registration(uint256 _authHash, string memory _id) internal {\r\n        regDetail memory _newAccount = regDetail({\r\n            isReged : true,\r\n            regTime : uint64(block.timestamp)\r\n        });\r\n\r\n        authDetail memory _newAuth = authDetail({\r\n            id : _id,\r\n            isExsit : true\r\n        });\r\n\r\n        authinfo[_id] = _newAccount;\r\n        auth[_authHash] = _newAuth;\r\n\r\n        emit registration(_id, _newAccount.regTime);\r\n    }\r\n\r\n    function requestLogin(uint256 _authHash) public returns (string memory) {\r\n        authDetail memory ax = auth[_authHash];\r\n\r\n        require(ax.isExsit == true,\"This ID doesnt exist\");\r\n        emit loginComfirm(ax.id, uint64(block.timestamp));\r\n\r\n        return ax.id;\r\n    }\r\n\r\n    function requestRegistration(uint256 _authHash, string memory _id) public returns (string memory) {\r\n        require(!_isthere(_id),\"This ID is being used by someone else\");\r\n        _registration(_authHash, _id);\r\n\r\n        return _id;\r\n    }\r\n\r\n}",
  "sourcePath": "E:/Ethereum/network/chainAuth/contracts/chainAuth.sol",
  "compiler": {
    "name": "solc",
    "version": "0.5.0+commit.1d4f565a.Emscripten.clang"
  },
  "schemaVersion": "3.0.2",
  "updatedAt": "2019-03-10T11:19:38.677Z",
  "devdoc": {
    "methods": {}
  },
  "userdoc": {
    "methods": {}
  }
}